:030000000208B43F
:0C08B400787FE4F6D8FD75810902080089
:10080000E4F508F5097590FF75B0207F017E0012B0
:100810000894E4F590F5B07F09FE1208940509E507
:100820000970020508D394C8E5086480948040D517
:10083000E4F508F5097590FF75B0207F057E00127C
:100840000894E4F590F5B07F05FE1208940509E5DB
:100850000970020508D394C8E5086480948040D5E7
:10086000E4F508F509D3E50994C8E50864809480A7
:10087000508E7590FF75B0207F097E00120894E4B9
:10088000F590F5B07F01FE1208940509E50970D5D1
:04089000050880D106
:10089400E4FDFCC3ED9FEC9E5015E4FBFA0BBB009A
:0F08A400010AEB64714A70F50DBD00010C80E490
:0108B3002222
:00000001FF
